{
  "_format": "hh-sol-artifact-1",
  "contractName": "MyContract",
  "sourceName": "contracts/mjtCalculate.sol",
  "abi": [
    {
      "inputs": [],
      "name": "getD",
      "outputs": [
        {
          "internalType": "uint256",
          "name": "",
          "type": "uint256"
        }
      ],
      "stateMutability": "view",
      "type": "function"
    },
    {
      "inputs": [],
      "name": "getE",
      "outputs": [
        {
          "internalType": "uint256",
          "name": "",
          "type": "uint256"
        }
      ],
      "stateMutability": "view",
      "type": "function"
    },
    {
      "inputs": [
        {
          "internalType": "uint256",
          "name": "_A",
          "type": "uint256"
        }
      ],
      "name": "setA",
      "outputs": [],
      "stateMutability": "nonpayable",
      "type": "function"
    },
    {
      "inputs": [
        {
          "internalType": "uint256",
          "name": "_B",
          "type": "uint256"
        }
      ],
      "name": "setB",
      "outputs": [],
      "stateMutability": "nonpayable",
      "type": "function"
    },
    {
      "inputs": [
        {
          "internalType": "uint256",
          "name": "_C",
          "type": "uint256"
        }
      ],
      "name": "setC",
      "outputs": [],
      "stateMutability": "nonpayable",
      "type": "function"
    }
  ],
  "bytecode": "0x608060405234801561001057600080fd5b506102f3806100206000396000f3fe608060405234801561001057600080fd5b50600436106100575760003560e01c806309cdcf9b1461005c5780631a14ff7a14610078578063b1cb267b14610096578063ee919d50146100b4578063eeb4914e146100d0575b600080fd5b6100766004803603810190610071919061018d565b6100ec565b005b6100806100f6565b60405161008d91906101c9565b60405180910390f35b61009e61011a565b6040516100ab91906101c9565b60405180910390f35b6100ce60048036038101906100c9919061018d565b61013e565b005b6100ea60048036038101906100e5919061018d565b610148565b005b8060018190555050565b600060025460015460005461010b9190610213565b6101159190610247565b905090565b600060025460015460005461012f919061027b565b6101399190610247565b905090565b8060008190555050565b8060028190555050565b600080fd5b6000819050919050565b61016a81610157565b811461017557600080fd5b50565b60008135905061018781610161565b92915050565b6000602082840312156101a3576101a2610152565b5b60006101b184828501610178565b91505092915050565b6101c381610157565b82525050565b60006020820190506101de60008301846101ba565b92915050565b7f4e487b7100000000000000000000000000000000000000000000000000000000600052601160045260246000fd5b600061021e82610157565b915061022983610157565b9250828201905080821115610241576102406101e4565b5b92915050565b600061025282610157565b915061025d83610157565b9250828203905081811115610275576102746101e4565b5b92915050565b600061028682610157565b915061029183610157565b925082820261029f81610157565b915082820484148315176102b6576102b56101e4565b5b509291505056fea2646970667358221220deaa0e890b2484429fe6846a170be0b0fbfdbfcc4fea27443cbe0686723c633a64736f6c63430008180033",
  "linkReferences": {},
  "deployedLinkReferences": {}
}